{
  "contractName": "Crud",
  "abi": [
    {
      "constant": true,
      "inputs": [],
      "name": "nextId",
      "outputs": [
        {
          "internalType": "uint256",
          "name": "",
          "type": "uint256"
        }
      ],
      "payable": false,
      "stateMutability": "view",
      "type": "function"
    },
    {
      "constant": true,
      "inputs": [
        {
          "internalType": "uint256",
          "name": "",
          "type": "uint256"
        }
      ],
      "name": "users",
      "outputs": [
        {
          "internalType": "uint256",
          "name": "id",
          "type": "uint256"
        },
        {
          "internalType": "string",
          "name": "email",
          "type": "string"
        },
        {
          "internalType": "string",
          "name": "name",
          "type": "string"
        },
        {
          "internalType": "uint256",
          "name": "balance",
          "type": "uint256"
        }
      ],
      "payable": false,
      "stateMutability": "view",
      "type": "function"
    },
    {
      "constant": false,
      "inputs": [
        {
          "internalType": "string",
          "name": "name",
          "type": "string"
        },
        {
          "internalType": "string",
          "name": "email",
          "type": "string"
        }
      ],
      "name": "create",
      "outputs": [],
      "payable": false,
      "stateMutability": "nonpayable",
      "type": "function"
    },
    {
      "constant": true,
      "inputs": [
        {
          "internalType": "uint256",
          "name": "id",
          "type": "uint256"
        }
      ],
      "name": "read",
      "outputs": [
        {
          "internalType": "uint256",
          "name": "",
          "type": "uint256"
        },
        {
          "internalType": "string",
          "name": "",
          "type": "string"
        },
        {
          "internalType": "string",
          "name": "",
          "type": "string"
        },
        {
          "internalType": "uint256",
          "name": "",
          "type": "uint256"
        }
      ],
      "payable": false,
      "stateMutability": "view",
      "type": "function"
    },
    {
      "constant": false,
      "inputs": [
        {
          "internalType": "uint256",
          "name": "id",
          "type": "uint256"
        },
        {
          "internalType": "uint256",
          "name": "amount",
          "type": "uint256"
        }
      ],
      "name": "update_balance",
      "outputs": [],
      "payable": false,
      "stateMutability": "nonpayable",
      "type": "function"
    },
    {
      "constant": false,
      "inputs": [
        {
          "internalType": "uint256",
          "name": "id",
          "type": "uint256"
        },
        {
          "internalType": "string",
          "name": "name",
          "type": "string"
        },
        {
          "internalType": "string",
          "name": "email",
          "type": "string"
        }
      ],
      "name": "update",
      "outputs": [],
      "payable": false,
      "stateMutability": "nonpayable",
      "type": "function"
    },
    {
      "constant": false,
      "inputs": [
        {
          "internalType": "uint256",
          "name": "id",
          "type": "uint256"
        }
      ],
      "name": "destroy",
      "outputs": [],
      "payable": false,
      "stateMutability": "nonpayable",
      "type": "function"
    }
  ],
  "bytecode": "0x60806040526001805534801561001457600080fd5b50610d73806100246000396000f3fe608060405234801561001057600080fd5b506004361061007d5760003560e01c8063923cc5381161005b578063923cc538146103135780639d1187701461034b578063ed2e5a9714610379578063f95e0a541461049a5761007d565b8063198e2b8a14610082578063365b98b2146101d457806361b8ce8c146102f5575b600080fd5b6101d26004803603604081101561009857600080fd5b81019080803590602001906401000000008111156100b557600080fd5b8201836020820111156100c757600080fd5b803590602001918460018302840111640100000000831117156100e957600080fd5b91908080601f016020809104026020016040519081016040528093929190818152602001838380828437600081840152601f19601f8201169050808301925050505050505091929192908035906020019064010000000081111561014c57600080fd5b82018360208201111561015e57600080fd5b8035906020019184600183028401116401000000008311171561018057600080fd5b91908080601f016020809104026020016040519081016040528093929190818152602001838380828437600081840152601f19601f8201169050808301925050505050505091929192905050506105f6565b005b610200600480360360208110156101ea57600080fd5b81019080803590602001909291905050506106ae565b604051808581526020018060200180602001848152602001838103835286818151815260200191508051906020019080838360005b83811015610250578082015181840152602081019050610235565b50505050905090810190601f16801561027d5780820380516001836020036101000a031916815260200191505b50838103825285818151815260200191508051906020019080838360005b838110156102b657808201518184015260208101905061029b565b50505050905090810190601f1680156102e35780820380516001836020036101000a031916815260200191505b50965050505050505060405180910390f35b6102fd61081b565b6040518082815260200191505060405180910390f35b6103496004803603604081101561032957600080fd5b810190808035906020019092919080359060200190929190505050610821565b005b6103776004803603602081101561036157600080fd5b810190808035906020019092919050505061085f565b005b6103a56004803603602081101561038f57600080fd5b81019080803590602001909291905050506108be565b604051808581526020018060200180602001848152602001838103835286818151815260200191508051906020019080838360005b838110156103f55780820151818401526020810190506103da565b50505050905090810190601f1680156104225780820380516001836020036101000a031916815260200191505b50838103825285818151815260200191508051906020019080838360005b8381101561045b578082015181840152602081019050610440565b50505050905090810190601f1680156104885780820380516001836020036101000a031916815260200191505b50965050505050505060405180910390f35b6105f4600480360360608110156104b057600080fd5b8101908080359060200190929190803590602001906401000000008111156104d757600080fd5b8201836020820111156104e957600080fd5b8035906020019184600183028401116401000000008311171561050b57600080fd5b91908080601f016020809104026020016040519081016040528093929190818152602001838380828437600081840152601f19601f8201169050808301925050505050505091929192908035906020019064010000000081111561056e57600080fd5b82018360208201111561058057600080fd5b803590602001918460018302840111640100000000831117156105a257600080fd5b91908080601f016020809104026020016040519081016040528093929190818152602001838380828437600081840152601f19601f820116905080830192505050505050509192919290505050610a93565b005b60006040518060800160405280600154815260200184815260200183815260200160008152509080600181540180825580915050906001820390600052602060002090600402016000909192909190915060008201518160000155602082015181600101908051906020019061066d929190610bd1565b50604082015181600201908051906020019061068a929190610bd1565b50606082015181600301555050506001600081548092919060010191905055505050565b600081815481106106bb57fe5b9060005260206000209060040201600091509050806000015490806001018054600181600116156101000203166002900480601f01602080910402602001604051908101604052809291908181526020018280546001816001161561010002031660029004801561076d5780601f106107425761010080835404028352916020019161076d565b820191906000526020600020905b81548152906001019060200180831161075057829003601f168201915b505050505090806002018054600181600116156101000203166002900480601f01602080910402602001604051908101604052809291908181526020018280546001816001161561010002031660029004801561080b5780601f106107e05761010080835404028352916020019161080b565b820191906000526020600020905b8154815290600101906020018083116107ee57829003601f168201915b5050505050908060030154905084565b60015481565b600061082c83610b0c565b9050816000828154811061083c57fe5b906000526020600020906004020160030160008282540192505081905550505050565b600061086a82610b0c565b90506000818154811061087957fe5b90600052602060002090600402016000808201600090556001820160006108a09190610c51565b6002820160006108b09190610c51565b600382016000905550505050565b60006060806000806108cf86610b0c565b9050600081815481106108de57fe5b906000526020600020906004020160000154600082815481106108fd57fe5b90600052602060002090600402016002016000838154811061091b57fe5b90600052602060002090600402016001016000848154811061093957fe5b906000526020600020906004020160030154828054600181600116156101000203166002900480601f0160208091040260200160405190810160405280929190818152602001828054600181600116156101000203166002900480156109e05780601f106109b5576101008083540402835291602001916109e0565b820191906000526020600020905b8154815290600101906020018083116109c357829003601f168201915b50505050509250818054600181600116156101000203166002900480601f016020809104026020016040519081016040528092919081815260200182805460018160011615610100020316600290048015610a7c5780601f10610a5157610100808354040283529160200191610a7c565b820191906000526020600020905b815481529060010190602001808311610a5f57829003601f168201915b505050505091509450945094509450509193509193565b6000610a9e84610b0c565b90508260008281548110610aae57fe5b90600052602060002090600402016002019080519060200190610ad2929190610c99565b508160008281548110610ae157fe5b90600052602060002090600402016001019080519060200190610b05929190610c99565b5050505050565b600080600090505b600080549050811015610b5d578260008281548110610b2f57fe5b9060005260206000209060040201600001541415610b505780915050610bcc565b8080600101915050610b14565b506040517f08c379a00000000000000000000000000000000000000000000000000000000081526004018080602001828103825260148152602001807f5573657220646f6573206e6f742065786973742100000000000000000000000081525060200191505060405180910390fd5b919050565b828054600181600116156101000203166002900490600052602060002090601f016020900481019282601f10610c1257805160ff1916838001178555610c40565b82800160010185558215610c40579182015b82811115610c3f578251825591602001919060010190610c24565b5b509050610c4d9190610d19565b5090565b50805460018160011615610100020316600290046000825580601f10610c775750610c96565b601f016020900490600052602060002090810190610c959190610d19565b5b50565b828054600181600116156101000203166002900490600052602060002090601f016020900481019282601f10610cda57805160ff1916838001178555610d08565b82800160010185558215610d08579182015b82811115610d07578251825591602001919060010190610cec565b5b509050610d159190610d19565b5090565b610d3b91905b80821115610d37576000816000905550600101610d1f565b5090565b9056fea265627a7a7231582012bbef87838d039c0fc73b647fb5f012a909198272d82f7661fedec73d44679a64736f6c63430005100032",
  "source": "pragma solidity ^0.5.0;\n\ncontract Crud {\n  struct User {\n    uint id;\n    string email;\n    string name;\n    uint balance;\n  }\n  User[] public users;\n  uint public nextId = 1;\n\n  function create(string memory name,string memory email) public  {\n    users.push(User(nextId, name, email,0));\n    nextId++;\n  }\n  function read(uint id) public view returns(uint, string memory, string memory, uint) {\n    uint i = find(id);\n    return(users[i].id, users[i].name, users[i].email, users[i].balance );\n  }\n  function update_balance(uint id, uint amount) public {\n    uint i = find(id);\n    users[i].balance += amount;\n  }\n  function update(uint id, string memory name, string memory email) public {\n    uint i = find(id);\n    users[i].name = name;\n    users[i].email = email;\n  }\n\n  function destroy(uint id) public {\n    uint i = find(id);\n    delete users[i];\n  }\n\n  function find(uint id) internal view returns(uint) {\n    for(uint i = 0; i < users.length; i++) {\n      if(users[i].id == id) {\n        return i;\n      }\n    }\n    revert('User does not exist!');\n  }\n\n}\n",
  "sourcePath": "C:\\Users\\aa\\Desktop\\Dapp\\Day 5\\contracts\\Crud.sol",
  "compiler": {
    "name": "solc",
    "version": "0.5.16+commit.9c3226ce.Emscripten.clang"
  },
  "schemaVersion": "3.2.2",
  "updatedAt": "2020-12-22T20:50:27.545Z",
  "devdoc": {
    "methods": {}
  },
  "userdoc": {
    "methods": {}
  }
}