{
  "contractName": "Crud",
  "abi": [
    {
      "constant": true,
      "inputs": [],
      "name": "nextId",
      "outputs": [
        {
          "internalType": "uint256",
          "name": "",
          "type": "uint256"
        }
      ],
      "payable": false,
      "stateMutability": "view",
      "type": "function"
    },
    {
      "constant": true,
      "inputs": [
        {
          "internalType": "uint256",
          "name": "",
          "type": "uint256"
        }
      ],
      "name": "users",
      "outputs": [
        {
          "internalType": "uint256",
          "name": "id",
          "type": "uint256"
        },
        {
          "internalType": "string",
          "name": "email",
          "type": "string"
        },
        {
          "internalType": "string",
          "name": "name",
          "type": "string"
        }
      ],
      "payable": false,
      "stateMutability": "view",
      "type": "function"
    },
    {
      "constant": false,
      "inputs": [
        {
          "internalType": "string",
          "name": "name",
          "type": "string"
        },
        {
          "internalType": "string",
          "name": "email",
          "type": "string"
        }
      ],
      "name": "create",
      "outputs": [],
      "payable": false,
      "stateMutability": "nonpayable",
      "type": "function"
    },
    {
      "constant": true,
      "inputs": [
        {
          "internalType": "uint256",
          "name": "id",
          "type": "uint256"
        }
      ],
      "name": "read",
      "outputs": [
        {
          "internalType": "uint256",
          "name": "",
          "type": "uint256"
        },
        {
          "internalType": "string",
          "name": "",
          "type": "string"
        },
        {
          "internalType": "string",
          "name": "",
          "type": "string"
        }
      ],
      "payable": false,
      "stateMutability": "view",
      "type": "function"
    },
    {
      "constant": false,
      "inputs": [
        {
          "internalType": "uint256",
          "name": "id",
          "type": "uint256"
        },
        {
          "internalType": "string",
          "name": "name",
          "type": "string"
        },
        {
          "internalType": "string",
          "name": "email",
          "type": "string"
        }
      ],
      "name": "update",
      "outputs": [],
      "payable": false,
      "stateMutability": "nonpayable",
      "type": "function"
    },
    {
      "constant": false,
      "inputs": [
        {
          "internalType": "uint256",
          "name": "id",
          "type": "uint256"
        }
      ],
      "name": "destroy",
      "outputs": [],
      "payable": false,
      "stateMutability": "nonpayable",
      "type": "function"
    }
  ],
  "bytecode": "0x60806040526001805534801561001457600080fd5b50610c93806100246000396000f3fe608060405234801561001057600080fd5b50600436106100625760003560e01c8063198e2b8a14610067578063365b98b2146101b957806361b8ce8c146102d35780639d118770146102f1578063ed2e5a971461031f578063f95e0a5414610439575b600080fd5b6101b76004803603604081101561007d57600080fd5b810190808035906020019064010000000081111561009a57600080fd5b8201836020820111156100ac57600080fd5b803590602001918460018302840111640100000000831117156100ce57600080fd5b91908080601f016020809104026020016040519081016040528093929190818152602001838380828437600081840152601f19601f8201169050808301925050505050505091929192908035906020019064010000000081111561013157600080fd5b82018360208201111561014357600080fd5b8035906020019184600183028401116401000000008311171561016557600080fd5b91908080601f016020809104026020016040519081016040528093929190818152602001838380828437600081840152601f19601f820116905080830192505050505050509192919290505050610595565b005b6101e5600480360360208110156101cf57600080fd5b810190808035906020019092919050505061063c565b604051808481526020018060200180602001838103835285818151815260200191508051906020019080838360005b8381101561022f578082015181840152602081019050610214565b50505050905090810190601f16801561025c5780820380516001836020036101000a031916815260200191505b50838103825284818151815260200191508051906020019080838360005b8381101561029557808201518184015260208101905061027a565b50505050905090810190601f1680156102c25780820380516001836020036101000a031916815260200191505b509550505050505060405180910390f35b6102db6107a3565b6040518082815260200191505060405180910390f35b61031d6004803603602081101561030757600080fd5b81019080803590602001909291905050506107a9565b005b61034b6004803603602081101561033557600080fd5b8101908080359060200190929190505050610800565b604051808481526020018060200180602001838103835285818151815260200191508051906020019080838360005b8381101561039557808201518184015260208101905061037a565b50505050905090810190601f1680156103c25780820380516001836020036101000a031916815260200191505b50838103825284818151815260200191508051906020019080838360005b838110156103fb5780820151818401526020810190506103e0565b50505050905090810190601f1680156104285780820380516001836020036101000a031916815260200191505b509550505050505060405180910390f35b6105936004803603606081101561044f57600080fd5b81019080803590602001909291908035906020019064010000000081111561047657600080fd5b82018360208201111561048857600080fd5b803590602001918460018302840111640100000000831117156104aa57600080fd5b91908080601f016020809104026020016040519081016040528093929190818152602001838380828437600081840152601f19601f8201169050808301925050505050505091929192908035906020019064010000000081111561050d57600080fd5b82018360208201111561051f57600080fd5b8035906020019184600183028401116401000000008311171561054157600080fd5b91908080601f016020809104026020016040519081016040528093929190818152602001838380828437600081840152601f19601f8201169050808301925050505050505091929192905050506109b3565b005b6000604051806060016040528060015481526020018481526020018381525090806001815401808255809150509060018203906000526020600020906003020160009091929091909150600082015181600001556020820151816001019080519060200190610605929190610af1565b506040820151816002019080519060200190610622929190610af1565b505050506001600081548092919060010191905055505050565b6000818154811061064957fe5b9060005260206000209060030201600091509050806000015490806001018054600181600116156101000203166002900480601f0160208091040260200160405190810160405280929190818152602001828054600181600116156101000203166002900480156106fb5780601f106106d0576101008083540402835291602001916106fb565b820191906000526020600020905b8154815290600101906020018083116106de57829003601f168201915b505050505090806002018054600181600116156101000203166002900480601f0160208091040260200160405190810160405280929190818152602001828054600181600116156101000203166002900480156107995780601f1061076e57610100808354040283529160200191610799565b820191906000526020600020905b81548152906001019060200180831161077c57829003601f168201915b5050505050905083565b60015481565b60006107b482610a2c565b9050600081815481106107c357fe5b90600052602060002090600302016000808201600090556001820160006107ea9190610b71565b6002820160006107fa9190610b71565b50505050565b6000606080600061081085610a2c565b90506000818154811061081f57fe5b9060005260206000209060030201600001546000828154811061083e57fe5b90600052602060002090600302016002016000838154811061085c57fe5b9060005260206000209060030201600101818054600181600116156101000203166002900480601f0160208091040260200160405190810160405280929190818152602001828054600181600116156101000203166002900480156109025780601f106108d757610100808354040283529160200191610902565b820191906000526020600020905b8154815290600101906020018083116108e557829003601f168201915b50505050509150808054600181600116156101000203166002900480601f01602080910402602001604051908101604052809291908181526020018280546001816001161561010002031660029004801561099e5780601f106109735761010080835404028352916020019161099e565b820191906000526020600020905b81548152906001019060200180831161098157829003601f168201915b50505050509050935093509350509193909250565b60006109be84610a2c565b905082600082815481106109ce57fe5b906000526020600020906003020160020190805190602001906109f2929190610bb9565b508160008281548110610a0157fe5b90600052602060002090600302016001019080519060200190610a25929190610bb9565b5050505050565b600080600090505b600080549050811015610a7d578260008281548110610a4f57fe5b9060005260206000209060030201600001541415610a705780915050610aec565b8080600101915050610a34565b506040517f08c379a00000000000000000000000000000000000000000000000000000000081526004018080602001828103825260148152602001807f5573657220646f6573206e6f742065786973742100000000000000000000000081525060200191505060405180910390fd5b919050565b828054600181600116156101000203166002900490600052602060002090601f016020900481019282601f10610b3257805160ff1916838001178555610b60565b82800160010185558215610b60579182015b82811115610b5f578251825591602001919060010190610b44565b5b509050610b6d9190610c39565b5090565b50805460018160011615610100020316600290046000825580601f10610b975750610bb6565b601f016020900490600052602060002090810190610bb59190610c39565b5b50565b828054600181600116156101000203166002900490600052602060002090601f016020900481019282601f10610bfa57805160ff1916838001178555610c28565b82800160010185558215610c28579182015b82811115610c27578251825591602001919060010190610c0c565b5b509050610c359190610c39565b5090565b610c5b91905b80821115610c57576000816000905550600101610c3f565b5090565b9056fea265627a7a723158207ce07b94cf07a03f739b45431fd1fc3f2d7d7905ca4a28d51f61d8960ce24eef64736f6c63430005100032",
  "source": "pragma solidity ^0.5.0;\n\ncontract Crud {\n  struct User {\n    uint id;\n    string email;\n    string name;\n  }\n  User[] public users;\n  uint public nextId = 1;\n\n  function create(string memory name,string memory email) public  {\n    users.push(User(nextId, name, email));\n    nextId++;\n  }\n\n  function read(uint id) public view returns(uint, string memory, string memory) {\n    uint i = find(id);\n    return(users[i].id, users[i].name, users[i].email );\n  }\n\n  function update(uint id, string memory name, string memory email) public {\n    uint i = find(id);\n    users[i].name = name;\n    users[i].email = email;\n  }\n\n  function destroy(uint id) public {\n    uint i = find(id);\n    delete users[i];\n  }\n\n  function find(uint id) internal view returns(uint) {\n    for(uint i = 0; i < users.length; i++) {\n      if(users[i].id == id) {\n        return i;\n      }\n    }\n    revert('User does not exist!');\n  }\n\n}\n",
  "sourcePath": "C:\\Users\\aa\\Desktop\\Dapp\\Day 5\\contracts\\Crud.sol",
  "compiler": {
    "name": "solc",
    "version": "0.5.16+commit.9c3226ce.Emscripten.clang"
  },
  "schemaVersion": "3.2.2",
  "updatedAt": "2020-07-17T20:31:12.983Z",
  "networkType": "ethereum",
  "devdoc": {
    "methods": {}
  },
  "userdoc": {
    "methods": {}
  }
}